{
  "contractName": "FoodSupplyChain",
  "abi": [
    {
      "anonymous": false,
      "inputs": [
        {
          "indexed": true,
          "internalType": "uint256",
          "name": "productId",
          "type": "uint256"
        },
        {
          "indexed": false,
          "internalType": "string",
          "name": "name",
          "type": "string"
        },
        {
          "indexed": false,
          "internalType": "string",
          "name": "location",
          "type": "string"
        },
        {
          "indexed": false,
          "internalType": "uint256",
          "name": "timestamp",
          "type": "uint256"
        },
        {
          "indexed": false,
          "internalType": "bool",
          "name": "isFresh",
          "type": "bool"
        }
      ],
      "name": "ProductCreated",
      "type": "event"
    },
    {
      "inputs": [],
      "name": "productCount",
      "outputs": [
        {
          "internalType": "uint256",
          "name": "",
          "type": "uint256"
        }
      ],
      "stateMutability": "view",
      "type": "function"
    },
    {
      "inputs": [
        {
          "internalType": "uint256",
          "name": "",
          "type": "uint256"
        }
      ],
      "name": "products",
      "outputs": [
        {
          "internalType": "string",
          "name": "name",
          "type": "string"
        },
        {
          "internalType": "string",
          "name": "location",
          "type": "string"
        },
        {
          "internalType": "uint256",
          "name": "timestamp",
          "type": "uint256"
        },
        {
          "internalType": "bool",
          "name": "isFresh",
          "type": "bool"
        }
      ],
      "stateMutability": "view",
      "type": "function"
    },
    {
      "inputs": [
        {
          "internalType": "string",
          "name": "name",
          "type": "string"
        },
        {
          "internalType": "string",
          "name": "location",
          "type": "string"
        },
        {
          "internalType": "uint256",
          "name": "timestamp",
          "type": "uint256"
        },
        {
          "internalType": "bool",
          "name": "isFresh",
          "type": "bool"
        }
      ],
      "name": "createProduct",
      "outputs": [],
      "stateMutability": "nonpayable",
      "type": "function"
    },
    {
      "inputs": [
        {
          "internalType": "uint256",
          "name": "productId",
          "type": "uint256"
        }
      ],
      "name": "getProduct",
      "outputs": [
        {
          "internalType": "string",
          "name": "",
          "type": "string"
        },
        {
          "internalType": "string",
          "name": "",
          "type": "string"
        },
        {
          "internalType": "uint256",
          "name": "",
          "type": "uint256"
        },
        {
          "internalType": "bool",
          "name": "",
          "type": "bool"
        }
      ],
      "stateMutability": "view",
      "type": "function"
    }
  ],
  "bytecode": "0x608060405234801561000f575f80fd5b50610b998061001d5f395ff3fe608060405234801561000f575f80fd5b506004361061004a575f3560e01c80637acc0b201461004e578063b9db15b414610081578063e0f6ef87146100b4578063ee386bf8146100d2575b5f80fd5b610068600480360381019061006391906104ec565b6100ee565b60405161007894939291906105ca565b60405180910390f35b61009b600480360381019061009691906104ec565b610231565b6040516100ab94939291906105ca565b60405180910390f35b6100bc6103ba565b6040516100c9919061061b565b60405180910390f35b6100ec60048036038101906100e7919061078a565b6103c0565b005b5f602052805f5260405f205f91509050805f01805461010c90610853565b80601f016020809104026020016040519081016040528092919081815260200182805461013890610853565b80156101835780601f1061015a57610100808354040283529160200191610183565b820191905f5260205f20905b81548152906001019060200180831161016657829003601f168201915b50505050509080600101805461019890610853565b80601f01602080910402602001604051908101604052809291908181526020018280546101c490610853565b801561020f5780601f106101e65761010080835404028352916020019161020f565b820191905f5260205f20905b8154815290600101906020018083116101f257829003601f168201915b505050505090806002015490806003015f9054906101000a900460ff16905084565b6060805f805f805f8781526020019081526020015f206040518060800160405290815f8201805461026190610853565b80601f016020809104026020016040519081016040528092919081815260200182805461028d90610853565b80156102d85780601f106102af576101008083540402835291602001916102d8565b820191905f5260205f20905b8154815290600101906020018083116102bb57829003601f168201915b505050505081526020016001820180546102f190610853565b80601f016020809104026020016040519081016040528092919081815260200182805461031d90610853565b80156103685780601f1061033f57610100808354040283529160200191610368565b820191905f5260205f20905b81548152906001019060200180831161034b57829003601f168201915b5050505050815260200160028201548152602001600382015f9054906101000a900460ff1615151515815250509050805f01518160200151826040015183606001519450945094509450509193509193565b60015481565b60015f8154809291906103d2906108b0565b919050555060405180608001604052808581526020018481526020018381526020018215158152505f8060015481526020019081526020015f205f820151815f01908161041f9190610a94565b5060208201518160010190816104359190610a94565b50604082015181600201556060820151816003015f6101000a81548160ff0219169083151502179055509050506001547f87223ae6f8a14f0917fd074a494079abae7b9cdaca6c1bbefd1730be6cbcff0d8585858560405161049a94939291906105ca565b60405180910390a250505050565b5f604051905090565b5f80fd5b5f80fd5b5f819050919050565b6104cb816104b9565b81146104d5575f80fd5b50565b5f813590506104e6816104c2565b92915050565b5f60208284031215610501576105006104b1565b5b5f61050e848285016104d8565b91505092915050565b5f81519050919050565b5f82825260208201905092915050565b5f5b8381101561054e578082015181840152602081019050610533565b5f8484015250505050565b5f601f19601f8301169050919050565b5f61057382610517565b61057d8185610521565b935061058d818560208601610531565b61059681610559565b840191505092915050565b6105aa816104b9565b82525050565b5f8115159050919050565b6105c4816105b0565b82525050565b5f6080820190508181035f8301526105e28187610569565b905081810360208301526105f68186610569565b905061060560408301856105a1565b61061260608301846105bb565b95945050505050565b5f60208201905061062e5f8301846105a1565b92915050565b5f80fd5b5f80fd5b7f4e487b71000000000000000000000000000000000000000000000000000000005f52604160045260245ffd5b61067282610559565b810181811067ffffffffffffffff821117156106915761069061063c565b5b80604052505050565b5f6106a36104a8565b90506106af8282610669565b919050565b5f67ffffffffffffffff8211156106ce576106cd61063c565b5b6106d782610559565b9050602081019050919050565b828183375f83830152505050565b5f6107046106ff846106b4565b61069a565b9050828152602081018484840111156107205761071f610638565b5b61072b8482856106e4565b509392505050565b5f82601f83011261074757610746610634565b5b81356107578482602086016106f2565b91505092915050565b610769816105b0565b8114610773575f80fd5b50565b5f8135905061078481610760565b92915050565b5f805f80608085870312156107a2576107a16104b1565b5b5f85013567ffffffffffffffff8111156107bf576107be6104b5565b5b6107cb87828801610733565b945050602085013567ffffffffffffffff8111156107ec576107eb6104b5565b5b6107f887828801610733565b9350506040610809878288016104d8565b925050606061081a87828801610776565b91505092959194509250565b7f4e487b71000000000000000000000000000000000000000000000000000000005f52602260045260245ffd5b5f600282049050600182168061086a57607f821691505b60208210810361087d5761087c610826565b5b50919050565b7f4e487b71000000000000000000000000000000000000000000000000000000005f52601160045260245ffd5b5f6108ba826104b9565b91507fffffffffffffffffffffffffffffffffffffffffffffffffffffffffffffffff82036108ec576108eb610883565b5b600182019050919050565b5f819050815f5260205f209050919050565b5f6020601f8301049050919050565b5f82821b905092915050565b5f600883026109537fffffffffffffffffffffffffffffffffffffffffffffffffffffffffffffffff82610918565b61095d8683610918565b95508019841693508086168417925050509392505050565b5f819050919050565b5f61099861099361098e846104b9565b610975565b6104b9565b9050919050565b5f819050919050565b6109b18361097e565b6109c56109bd8261099f565b848454610924565b825550505050565b5f90565b6109d96109cd565b6109e48184846109a8565b505050565b5b81811015610a07576109fc5f826109d1565b6001810190506109ea565b5050565b601f821115610a4c57610a1d816108f7565b610a2684610909565b81016020851015610a35578190505b610a49610a4185610909565b8301826109e9565b50505b505050565b5f82821c905092915050565b5f610a6c5f1984600802610a51565b1980831691505092915050565b5f610a848383610a5d565b9150826002028217905092915050565b610a9d82610517565b67ffffffffffffffff811115610ab657610ab561063c565b5b610ac08254610853565b610acb828285610a0b565b5f60209050601f831160018114610afc575f8415610aea578287015190505b610af48582610a79565b865550610b5b565b601f198416610b0a866108f7565b5f5b82811015610b3157848901518255600182019150602085019450602081019050610b0c565b86831015610b4e5784890151610b4a601f891682610a5d565b8355505b6001600288020188555050505b50505050505056fea2646970667358221220a535f17d9f9b5316e2e7a87efac4054329ff704b1096b681dcfdf0616def6bcf64736f6c63430008150033",
  "immutableReferences": {},
  "source": "// SPDX-License-Identifier: MIT\r\npragma solidity ^0.8.21;\r\n\r\ncontract FoodSupplyChain {\r\n    struct Product {\r\n        string name;\r\n        string location;\r\n        uint timestamp;\r\n        bool isFresh;\r\n    }\r\n\r\n    mapping(uint256 => Product) public products;\r\n    uint256 public productCount;\r\n\r\n    event ProductCreated(\r\n        uint256 indexed productId,\r\n        string name,\r\n        string location,\r\n        uint timestamp,\r\n        bool isFresh\r\n    );\r\n\r\n    function createProduct(string memory name, string memory location, uint timestamp, bool isFresh) public {\r\n        productCount++;\r\n        products[productCount] = Product(name, location, timestamp, isFresh);\r\n        emit ProductCreated(productCount, name, location, timestamp, isFresh);\r\n    }\r\n\r\n    function getProduct(uint256 productId) public view returns (string memory, string memory, uint, bool) {\r\n        Product memory product = products[productId];\r\n        return (product.name, product.location, product.timestamp, product.isFresh);\r\n    }\r\n}",
  "sourcePath": "D:\\major project\\food-supply-chain-smart-contracts\\contracts\\FoodSupplyChain.sol",
  "compiler": {
    "name": "solc",
    "version": "0.8.21+commit.d9974bed.Emscripten.clang"
  },
  "schemaVersion": "3.4.16",
  "updatedAt": "2024-09-30T06:24:27.444Z",
  "devdoc": {
    "kind": "dev",
    "methods": {},
    "version": 1
  },
  "userdoc": {
    "kind": "user",
    "methods": {},
    "version": 1
  }
}